{
  "address": "0x15b099e0Ad85c0d10efba09c05C9e8dB1cDa61a8",
  "abi": [
    {
      "inputs": [],
      "name": "AllocationClaimed",
      "type": "error"
    },
    {
      "inputs": [],
      "name": "NoAllocation",
      "type": "error"
    },
    {
      "inputs": [],
      "name": "NotAuthorized",
      "type": "error"
    },
    {
      "anonymous": false,
      "inputs": [
        {
          "indexed": false,
          "internalType": "address",
          "name": "previousAdmin",
          "type": "address"
        },
        {
          "indexed": false,
          "internalType": "address",
          "name": "newAdmin",
          "type": "address"
        }
      ],
      "name": "AdminChanged",
      "type": "event"
    },
    {
      "anonymous": false,
      "inputs": [
        {
          "indexed": true,
          "internalType": "address",
          "name": "beacon",
          "type": "address"
        }
      ],
      "name": "BeaconUpgraded",
      "type": "event"
    },
    {
      "anonymous": false,
      "inputs": [
        {
          "indexed": false,
          "internalType": "address",
          "name": "pToken",
          "type": "address"
        },
        {
          "indexed": false,
          "internalType": "address",
          "name": "cToken",
          "type": "address"
        },
        {
          "indexed": false,
          "internalType": "uint256",
          "name": "pAllocation",
          "type": "uint256"
        }
      ],
      "name": "SnapAdded",
      "type": "event"
    },
    {
      "anonymous": false,
      "inputs": [
        {
          "indexed": true,
          "internalType": "address",
          "name": "pToken",
          "type": "address"
        },
        {
          "indexed": true,
          "internalType": "address",
          "name": "cToken",
          "type": "address"
        },
        {
          "indexed": true,
          "internalType": "address",
          "name": "claimer",
          "type": "address"
        },
        {
          "indexed": false,
          "internalType": "uint256",
          "name": "amount",
          "type": "uint256"
        }
      ],
      "name": "SnapClaimed",
      "type": "event"
    },
    {
      "anonymous": false,
      "inputs": [
        {
          "indexed": true,
          "internalType": "address",
          "name": "implementation",
          "type": "address"
        }
      ],
      "name": "Upgraded",
      "type": "event"
    },
    {
      "inputs": [],
      "name": "accessControl",
      "outputs": [
        {
          "internalType": "contract IDAOAccessControl",
          "name": "",
          "type": "address"
        }
      ],
      "stateMutability": "view",
      "type": "function"
    },
    {
      "inputs": [],
      "name": "cToken",
      "outputs": [
        {
          "internalType": "address",
          "name": "",
          "type": "address"
        }
      ],
      "stateMutability": "view",
      "type": "function"
    },
    {
      "inputs": [
        {
          "internalType": "address",
          "name": "claimer",
          "type": "address"
        }
      ],
      "name": "calculateClaimAmount",
      "outputs": [
        {
          "internalType": "uint256",
          "name": "cTokenAllocation",
          "type": "uint256"
        }
      ],
      "stateMutability": "view",
      "type": "function"
    },
    {
      "inputs": [
        {
          "internalType": "address",
          "name": "claimer",
          "type": "address"
        }
      ],
      "name": "claimSnap",
      "outputs": [],
      "stateMutability": "nonpayable",
      "type": "function"
    },
    {
      "inputs": [
        {
          "internalType": "address",
          "name": "_metaFactory",
          "type": "address"
        },
        {
          "internalType": "address",
          "name": "_accessControl",
          "type": "address"
        },
        {
          "internalType": "address",
          "name": "_pToken",
          "type": "address"
        },
        {
          "internalType": "address",
          "name": "_cToken",
          "type": "address"
        },
        {
          "internalType": "uint256",
          "name": "_pAllocation",
          "type": "uint256"
        }
      ],
      "name": "initialize",
      "outputs": [],
      "stateMutability": "nonpayable",
      "type": "function"
    },
    {
      "inputs": [],
      "name": "moduleFactory",
      "outputs": [
        {
          "internalType": "address",
          "name": "",
          "type": "address"
        }
      ],
      "stateMutability": "view",
      "type": "function"
    },
    {
      "inputs": [],
      "name": "name",
      "outputs": [
        {
          "internalType": "string",
          "name": "",
          "type": "string"
        }
      ],
      "stateMutability": "view",
      "type": "function"
    },
    {
      "inputs": [],
      "name": "pAllocation",
      "outputs": [
        {
          "internalType": "uint256",
          "name": "",
          "type": "uint256"
        }
      ],
      "stateMutability": "view",
      "type": "function"
    },
    {
      "inputs": [],
      "name": "pToken",
      "outputs": [
        {
          "internalType": "address",
          "name": "",
          "type": "address"
        }
      ],
      "stateMutability": "view",
      "type": "function"
    },
    {
      "inputs": [],
      "name": "proxiableUUID",
      "outputs": [
        {
          "internalType": "bytes32",
          "name": "",
          "type": "bytes32"
        }
      ],
      "stateMutability": "view",
      "type": "function"
    },
    {
      "inputs": [],
      "name": "snapId",
      "outputs": [
        {
          "internalType": "uint256",
          "name": "",
          "type": "uint256"
        }
      ],
      "stateMutability": "view",
      "type": "function"
    },
    {
      "inputs": [
        {
          "internalType": "bytes4",
          "name": "interfaceId",
          "type": "bytes4"
        }
      ],
      "name": "supportsInterface",
      "outputs": [
        {
          "internalType": "bool",
          "name": "",
          "type": "bool"
        }
      ],
      "stateMutability": "view",
      "type": "function"
    },
    {
      "inputs": [
        {
          "internalType": "address",
          "name": "newImplementation",
          "type": "address"
        }
      ],
      "name": "upgradeTo",
      "outputs": [],
      "stateMutability": "nonpayable",
      "type": "function"
    },
    {
      "inputs": [
        {
          "internalType": "address",
          "name": "newImplementation",
          "type": "address"
        },
        {
          "internalType": "bytes",
          "name": "data",
          "type": "bytes"
        }
      ],
      "name": "upgradeToAndCall",
      "outputs": [],
      "stateMutability": "payable",
      "type": "function"
    }
  ],
  "transactionHash": "0x2256c36a7c1af5f7f8f629fa87eb05c8e43b29d1faa0a79ceea4c111dd7ba479",
  "args": [],
  "numDeployments": 2,
  "solcInputHash": "2793b14eaa90e27449c2f962a441130f",
  "bytecode": "0x60a06040523060805234801561001457600080fd5b506080516116fe61004c60003960008181610391015281816103da015281816105280152818161056801526105fb01526116fe6000f3fe6080604052600436106100dd5760003560e01c806352d1902d1161007f5780638991255b116100595780638991255b1461023f578063977477281461025f578063a40d1cbd14610275578063f7013ef61461029557600080fd5b806352d1902d146101ea57806358a06f07146101ff57806369e527da1461021f57600080fd5b80633659cfe6116100bb5780633659cfe6146101715780634175428c14610193578063466bbe81146101b35780634f1ef286146101d757600080fd5b806301ffc9a7146100e257806306fdde031461011757806313007d5514610139575b600080fd5b3480156100ee57600080fd5b506101026100fd3660046112ca565b6102b5565b60405190151581526020015b60405180910390f35b34801561012357600080fd5b5061012c6102f5565b60405161010e9190611320565b34801561014557600080fd5b50606654610159906001600160a01b031681565b6040516001600160a01b03909116815260200161010e565b34801561017d57600080fd5b5061019161018c36600461136f565b610387565b005b34801561019f57600080fd5b506101916101ae36600461136f565b61046f565b3480156101bf57600080fd5b506101c9606c5481565b60405190815260200161010e565b6101916101e53660046113a0565b61051e565b3480156101f657600080fd5b506101c96105ee565b34801561020b57600080fd5b50606a54610159906001600160a01b031681565b34801561022b57600080fd5b50606954610159906001600160a01b031681565b34801561024b57600080fd5b50606754610159906001600160a01b031681565b34801561026b57600080fd5b506101c9606b5481565b34801561028157600080fd5b506101c961029036600461136f565b6106a1565b3480156102a157600080fd5b506101916102b0366004611462565b6107d3565b60006301ffc9a760e01b6001600160e01b0319831614806102ef57506001600160e01b0319821660009081526065602052604090205460ff165b92915050565b606060688054610304906114be565b80601f0160208091040260200160405190810160405280929190818152602001828054610330906114be565b801561037d5780601f106103525761010080835404028352916020019161037d565b820191906000526020600020905b81548152906001019060200180831161036057829003601f168201915b5050505050905090565b6001600160a01b037f00000000000000000000000000000000000000000000000000000000000000001630036103d85760405162461bcd60e51b81526004016103cf906114f8565b60405180910390fd5b7f00000000000000000000000000000000000000000000000000000000000000006001600160a01b0316610421600080516020611682833981519152546001600160a01b031690565b6001600160a01b0316146104475760405162461bcd60e51b81526004016103cf90611544565b610450816108fc565b6040805160008082526020820190925261046c918391906109a0565b50565b600061047a826106a1565b90508060000361049d57604051632fc532ad60e11b815260040160405180910390fd5b6001600160a01b038083166000908152606d60205260409020805460ff191660011790556069546104d091168383610b10565b606954606a546040518381526001600160a01b038581169381169216907f14598a46cf7d6b47beae636c879badc9ad239ea17ee5252fe6a365694a9c35969060200160405180910390a45050565b6001600160a01b037f00000000000000000000000000000000000000000000000000000000000000001630036105665760405162461bcd60e51b81526004016103cf906114f8565b7f00000000000000000000000000000000000000000000000000000000000000006001600160a01b03166105af600080516020611682833981519152546001600160a01b031690565b6001600160a01b0316146105d55760405162461bcd60e51b81526004016103cf90611544565b6105de826108fc565b6105ea828260016109a0565b5050565b6000306001600160a01b037f0000000000000000000000000000000000000000000000000000000000000000161461068e5760405162461bcd60e51b815260206004820152603860248201527f555550535570677261646561626c653a206d757374206e6f742062652063616c60448201527f6c6564207468726f7567682064656c656761746563616c6c000000000000000060648201526084016103cf565b5060008051602061168283398151915290565b6001600160a01b0381166000908152606d602052604081205460ff166107cb57606a54606b54604051630981b24d60e41b81526001600160a01b039092169163981b24d0916106f69160040190815260200190565b602060405180830381865afa158015610713573d6000803e3d6000fd5b505050506040513d601f19601f820116820180604052508101906107379190611590565b606c54606a54606b5460405163277166bf60e11b81526001600160a01b0387811660048301526024820192909252911690634ee2cd7e90604401602060405180830381865afa15801561078e573d6000803e3d6000fd5b505050506040513d601f19601f820116820180604052508101906107b29190611590565b6107bc91906115a9565b6107c691906115d6565b6102ef565b600092915050565b600054610100900460ff166107ee5760005460ff16156107f2565b303b155b6108555760405162461bcd60e51b815260206004820152602e60248201527f496e697469616c697a61626c653a20636f6e747261637420697320616c72656160448201526d191e481a5b9a5d1a585b1a5e995960921b60648201526084016103cf565b600054610100900460ff16158015610877576000805461ffff19166101011790555b6108aa85336040518060400160405280601081526020016f436c61696d205375627369646961727960801b815250610b62565b6108ba63127960c760e01b610be1565b606980546001600160a01b0319166001600160a01b0385161790556108e186858585610c60565b5080156108f4576000805461ff00191690555b505050505050565b6066546040516001623b410b60e21b031981523360048201523060248201526000356001600160e01b03191660448201526001600160a01b039091169063ff12fbd490606401602060405180830381865afa15801561095f573d6000803e3d6000fd5b505050506040513d601f19601f8201168201806040525081019061098391906115f8565b61046c5760405163ea8e4eb560e01b815260040160405180910390fd5b7f4910fdfa16fed3260ed0e7147f7cc6da11a60208b5b9406d12a635614ffd91435460ff16156109d8576109d383610db8565b505050565b826001600160a01b03166352d1902d6040518163ffffffff1660e01b8152600401602060405180830381865afa925050508015610a32575060408051601f3d908101601f19168201909252610a2f91810190611590565b60015b610a955760405162461bcd60e51b815260206004820152602e60248201527f45524331393637557067726164653a206e657720696d706c656d656e7461746960448201526d6f6e206973206e6f74205555505360901b60648201526084016103cf565b6000805160206116828339815191528114610b045760405162461bcd60e51b815260206004820152602960248201527f45524331393637557067726164653a20756e737570706f727465642070726f786044820152681a58589b195555525160ba1b60648201526084016103cf565b506109d3838383610e54565b604080516001600160a01b038416602482015260448082018490528251808303909101815260649091019091526020810180516001600160e01b031663a9059cbb60e01b1790526109d3908490610e7f565b600054610100900460ff16610b895760405162461bcd60e51b81526004016103cf9061161a565b606680546001600160a01b038086166001600160a01b03199283161790925560678054928516929091169190911790558051610bcc906068906020840190611231565b50610bd5610f51565b6109d3630afed1ab60e11b5b6001600160e01b03198082169003610c3b5760405162461bcd60e51b815260206004820152601c60248201527f4552433136353a20696e76616c696420696e746572666163652069640000000060448201526064016103cf565b6001600160e01b0319166000908152606560205260409020805460ff19166001179055565b6040516323b872dd60e01b81526001600160a01b03858116600483015230602483015260448201839052600091908416906323b872dd906064016020604051808303816000875af1158015610cb9573d6000803e3d6000fd5b505050506040513d601f19601f82011682018060405250810190610cdd91906115f8565b50836001600160a01b031663d1dc72a36040518163ffffffff1660e01b81526004016020604051808303816000875af1158015610d1e573d6000803e3d6000fd5b505050506040513d601f19601f82011682018060405250810190610d429190611590565b606a80546001600160a01b0319166001600160a01b03878116918217909255606b839055606c8590556040805191825291861660208201529081018490529091507f53c4c896b07481b6e7f9a43867bc6e836fd59da1ac604caedb1c097ce8e89bd59060600160405180910390a1949350505050565b6001600160a01b0381163b610e255760405162461bcd60e51b815260206004820152602d60248201527f455243313936373a206e657720696d706c656d656e746174696f6e206973206e60448201526c1bdd08184818dbdb9d1c9858dd609a1b60648201526084016103cf565b60008051602061168283398151915280546001600160a01b0319166001600160a01b0392909216919091179055565b610e5d83610f7a565b600082511180610e6a5750805b156109d357610e798383610fba565b50505050565b6000610ed4826040518060400160405280602081526020017f5361666545524332303a206c6f772d6c6576656c2063616c6c206661696c6564815250856001600160a01b03166110ae9092919063ffffffff16565b8051909150156109d35780806020019051810190610ef291906115f8565b6109d35760405162461bcd60e51b815260206004820152602a60248201527f5361666545524332303a204552433230206f7065726174696f6e20646964206e6044820152691bdd081cdd58d8d9595960b21b60648201526084016103cf565b600054610100900460ff16610f785760405162461bcd60e51b81526004016103cf9061161a565b565b610f8381610db8565b6040516001600160a01b038216907fbc7cd75a20ee27fd9adebab32041f755214dbc6bffa90cc0225b39da2e5c2d3b90600090a250565b60606001600160a01b0383163b6110225760405162461bcd60e51b815260206004820152602660248201527f416464726573733a2064656c65676174652063616c6c20746f206e6f6e2d636f6044820152651b9d1c9858dd60d21b60648201526084016103cf565b600080846001600160a01b03168460405161103d9190611665565b600060405180830381855af49150503d8060008114611078576040519150601f19603f3d011682016040523d82523d6000602084013e61107d565b606091505b50915091506110a582826040518060600160405280602781526020016116a2602791396110c7565b95945050505050565b60606110bd8484600085611100565b90505b9392505050565b606083156110d65750816110c0565b8251156110e65782518084602001fd5b8160405162461bcd60e51b81526004016103cf9190611320565b6060824710156111615760405162461bcd60e51b815260206004820152602660248201527f416464726573733a20696e73756666696369656e742062616c616e636520666f6044820152651c8818d85b1b60d21b60648201526084016103cf565b6001600160a01b0385163b6111b85760405162461bcd60e51b815260206004820152601d60248201527f416464726573733a2063616c6c20746f206e6f6e2d636f6e747261637400000060448201526064016103cf565b600080866001600160a01b031685876040516111d49190611665565b60006040518083038185875af1925050503d8060008114611211576040519150601f19603f3d011682016040523d82523d6000602084013e611216565b606091505b50915091506112268282866110c7565b979650505050505050565b82805461123d906114be565b90600052602060002090601f01602090048101928261125f57600085556112a5565b82601f1061127857805160ff19168380011785556112a5565b828001600101855582156112a5579182015b828111156112a557825182559160200191906001019061128a565b506112b19291506112b5565b5090565b5b808211156112b157600081556001016112b6565b6000602082840312156112dc57600080fd5b81356001600160e01b0319811681146110c057600080fd5b60005b8381101561130f5781810151838201526020016112f7565b83811115610e795750506000910152565b602081526000825180602084015261133f8160408501602087016112f4565b601f01601f19169190910160400192915050565b80356001600160a01b038116811461136a57600080fd5b919050565b60006020828403121561138157600080fd5b6110c082611353565b634e487b7160e01b600052604160045260246000fd5b600080604083850312156113b357600080fd5b6113bc83611353565b9150602083013567ffffffffffffffff808211156113d957600080fd5b818501915085601f8301126113ed57600080fd5b8135818111156113ff576113ff61138a565b604051601f8201601f19908116603f011681019083821181831017156114275761142761138a565b8160405282815288602084870101111561144057600080fd5b8260208601602083013760006020848301015280955050505050509250929050565b600080600080600060a0868803121561147a57600080fd5b61148386611353565b945061149160208701611353565b935061149f60408701611353565b92506114ad60608701611353565b949793965091946080013592915050565b600181811c908216806114d257607f821691505b6020821081036114f257634e487b7160e01b600052602260045260246000fd5b50919050565b6020808252602c908201527f46756e6374696f6e206d7573742062652063616c6c6564207468726f7567682060408201526b19195b1959d85d1958d85b1b60a21b606082015260800190565b6020808252602c908201527f46756e6374696f6e206d7573742062652063616c6c6564207468726f7567682060408201526b6163746976652070726f787960a01b606082015260800190565b6000602082840312156115a257600080fd5b5051919050565b60008160001904831182151516156115d157634e487b7160e01b600052601160045260246000fd5b500290565b6000826115f357634e487b7160e01b600052601260045260246000fd5b500490565b60006020828403121561160a57600080fd5b815180151581146110c057600080fd5b6020808252602b908201527f496e697469616c697a61626c653a20636f6e7472616374206973206e6f74206960408201526a6e697469616c697a696e6760a81b606082015260800190565b600082516116778184602087016112f4565b919091019291505056fe360894a13ba1a3210667c828492db98dca3e2076cc3735a920a3ca505d382bbc416464726573733a206c6f772d6c6576656c2064656c65676174652063616c6c206661696c6564a26469706673582212204bf11dc0da79424ef16c52f376206b053677e76ea4d1ad0e62ba4b9d886c12e064736f6c634300080d0033",
  "devdoc": {
    "kind": "dev",
    "methods": {
      "calculateClaimAmount(address)": {
        "params": {
          "claimer": "Address which is being claimed for"
        },
        "returns": {
          "cTokenAllocation": "Users cToken allocation"
        }
      },
      "claimSnap(address)": {
        "params": {
          "claimer": "Address which is being claimed for"
        }
      },
      "initialize(address,address,address,address,uint256)": {
        "params": {
          "_accessControl": "Address of AccessControl",
          "_cToken": "Address of child Token being claimed",
          "_metaFactory": "Address funding claimContract",
          "_pAllocation": "Total tokens allocated for pToken holders",
          "_pToken": "Address of the parent token used for snapshot reference"
        }
      },
      "name()": {
        "returns": {
          "_0": "The module name"
        }
      },
      "proxiableUUID()": {
        "details": "Implementation of the ERC1822 {proxiableUUID} function. This returns the storage slot used by the implementation. It is used to validate that the this implementation remains valid after an upgrade. IMPORTANT: A proxy pointing at a proxiable contract should not be considered proxiable itself, because this risks bricking a proxy that upgrades to it, by delegating to itself until out of gas. Thus it is critical that this function revert if invoked through a proxy. This is guaranteed by the `notDelegated` modifier."
      },
      "supportsInterface(bytes4)": {
        "details": "See {IERC165-supportsInterface}."
      },
      "upgradeTo(address)": {
        "details": "Upgrade the implementation of the proxy to `newImplementation`. Calls {_authorizeUpgrade}. Emits an {Upgraded} event."
      },
      "upgradeToAndCall(address,bytes)": {
        "details": "Upgrade the implementation of the proxy to `newImplementation`, and subsequently execute the function call encoded in `data`. Calls {_authorizeUpgrade}. Emits an {Upgraded} event."
      }
    },
    "stateVariables": {
      "__gap": {
        "details": "This empty reserved space is put in place to allow future versions to add new variables without shifting down storage in the inheritance chain. See https://docs.openzeppelin.com/contracts/4.x/upgradeable#storage_gaps"
      }
    },
    "version": 1
  },
  "userdoc": {
    "kind": "user",
    "methods": {
      "calculateClaimAmount(address)": {
        "notice": "Calculate a users cToken allocation"
      },
      "claimSnap(address)": {
        "notice": "This function allows pToken holders to claim cTokens"
      },
      "initialize(address,address,address,address,uint256)": {
        "notice": "Initilize Claim Contract"
      },
      "name()": {
        "notice": "Returns the module name"
      }
    },
    "version": 1
  },
  "storageLayout": {
    "storage": [
      {
        "astId": 1917,
        "contract": "contracts/ClaimSubsidiary.sol:ClaimSubsidiary",
        "label": "_initialized",
        "offset": 0,
        "slot": "0",
        "type": "t_bool"
      },
      {
        "astId": 1920,
        "contract": "contracts/ClaimSubsidiary.sol:ClaimSubsidiary",
        "label": "_initializing",
        "offset": 1,
        "slot": "0",
        "type": "t_bool"
      },
      {
        "astId": 1899,
        "contract": "contracts/ClaimSubsidiary.sol:ClaimSubsidiary",
        "label": "__gap",
        "offset": 0,
        "slot": "1",
        "type": "t_array(t_uint256)50_storage"
      },
      {
        "astId": 2119,
        "contract": "contracts/ClaimSubsidiary.sol:ClaimSubsidiary",
        "label": "__gap",
        "offset": 0,
        "slot": "51",
        "type": "t_array(t_uint256)50_storage"
      },
      {
        "astId": 6580,
        "contract": "contracts/ClaimSubsidiary.sol:ClaimSubsidiary",
        "label": "_supportedInterfaces",
        "offset": 0,
        "slot": "101",
        "type": "t_mapping(t_bytes4,t_bool)"
      },
      {
        "astId": 1077,
        "contract": "contracts/ClaimSubsidiary.sol:ClaimSubsidiary",
        "label": "accessControl",
        "offset": 0,
        "slot": "102",
        "type": "t_contract(IDAOAccessControl)1461"
      },
      {
        "astId": 1079,
        "contract": "contracts/ClaimSubsidiary.sol:ClaimSubsidiary",
        "label": "moduleFactory",
        "offset": 0,
        "slot": "103",
        "type": "t_address"
      },
      {
        "astId": 1081,
        "contract": "contracts/ClaimSubsidiary.sol:ClaimSubsidiary",
        "label": "_name",
        "offset": 0,
        "slot": "104",
        "type": "t_string_storage"
      },
      {
        "astId": 7251,
        "contract": "contracts/ClaimSubsidiary.sol:ClaimSubsidiary",
        "label": "cToken",
        "offset": 0,
        "slot": "105",
        "type": "t_address"
      },
      {
        "astId": 7253,
        "contract": "contracts/ClaimSubsidiary.sol:ClaimSubsidiary",
        "label": "pToken",
        "offset": 0,
        "slot": "106",
        "type": "t_address"
      },
      {
        "astId": 7255,
        "contract": "contracts/ClaimSubsidiary.sol:ClaimSubsidiary",
        "label": "snapId",
        "offset": 0,
        "slot": "107",
        "type": "t_uint256"
      },
      {
        "astId": 7257,
        "contract": "contracts/ClaimSubsidiary.sol:ClaimSubsidiary",
        "label": "pAllocation",
        "offset": 0,
        "slot": "108",
        "type": "t_uint256"
      },
      {
        "astId": 7261,
        "contract": "contracts/ClaimSubsidiary.sol:ClaimSubsidiary",
        "label": "isSnapClaimed",
        "offset": 0,
        "slot": "109",
        "type": "t_mapping(t_address,t_bool)"
      },
      {
        "astId": 7436,
        "contract": "contracts/ClaimSubsidiary.sol:ClaimSubsidiary",
        "label": "__gap",
        "offset": 0,
        "slot": "110",
        "type": "t_array(t_uint256)48_storage"
      }
    ],
    "types": {
      "t_address": {
        "encoding": "inplace",
        "label": "address",
        "numberOfBytes": "20"
      },
      "t_array(t_uint256)48_storage": {
        "base": "t_uint256",
        "encoding": "inplace",
        "label": "uint256[48]",
        "numberOfBytes": "1536"
      },
      "t_array(t_uint256)50_storage": {
        "base": "t_uint256",
        "encoding": "inplace",
        "label": "uint256[50]",
        "numberOfBytes": "1600"
      },
      "t_bool": {
        "encoding": "inplace",
        "label": "bool",
        "numberOfBytes": "1"
      },
      "t_bytes4": {
        "encoding": "inplace",
        "label": "bytes4",
        "numberOfBytes": "4"
      },
      "t_contract(IDAOAccessControl)1461": {
        "encoding": "inplace",
        "label": "contract IDAOAccessControl",
        "numberOfBytes": "20"
      },
      "t_mapping(t_address,t_bool)": {
        "encoding": "mapping",
        "key": "t_address",
        "label": "mapping(address => bool)",
        "numberOfBytes": "32",
        "value": "t_bool"
      },
      "t_mapping(t_bytes4,t_bool)": {
        "encoding": "mapping",
        "key": "t_bytes4",
        "label": "mapping(bytes4 => bool)",
        "numberOfBytes": "32",
        "value": "t_bool"
      },
      "t_string_storage": {
        "encoding": "bytes",
        "label": "string",
        "numberOfBytes": "32"
      },
      "t_uint256": {
        "encoding": "inplace",
        "label": "uint256",
        "numberOfBytes": "32"
      }
    }
  }
}